{
  "_format": "hh-sol-artifact-1",
  "contractName": "Collectible1155",
  "sourceName": "contracts/Collectible1155.sol",
  "abi": [
    {
      "inputs": [
        {
          "internalType": "string",
          "name": "baseURI_",
          "type": "string"
        },
        {
          "internalType": "address",
          "name": "initialOwner",
          "type": "address"
        }
      ],
      "stateMutability": "nonpayable",
      "type": "constructor"
    },
    {
      "inputs": [
        {
          "internalType": "address",
          "name": "sender",
          "type": "address"
        },
        {
          "internalType": "uint256",
          "name": "balance",
          "type": "uint256"
        },
        {
          "internalType": "uint256",
          "name": "needed",
          "type": "uint256"
        },
        {
          "internalType": "uint256",
          "name": "tokenId",
          "type": "uint256"
        }
      ],
      "name": "ERC1155InsufficientBalance",
      "type": "error"
    },
    {
      "inputs": [
        {
          "internalType": "address",
          "name": "approver",
          "type": "address"
        }
      ],
      "name": "ERC1155InvalidApprover",
      "type": "error"
    },
    {
      "inputs": [
        {
          "internalType": "uint256",
          "name": "idsLength",
          "type": "uint256"
        },
        {
          "internalType": "uint256",
          "name": "valuesLength",
          "type": "uint256"
        }
      ],
      "name": "ERC1155InvalidArrayLength",
      "type": "error"
    },
    {
      "inputs": [
        {
          "internalType": "address",
          "name": "operator",
          "type": "address"
        }
      ],
      "name": "ERC1155InvalidOperator",
      "type": "error"
    },
    {
      "inputs": [
        {
          "internalType": "address",
          "name": "receiver",
          "type": "address"
        }
      ],
      "name": "ERC1155InvalidReceiver",
      "type": "error"
    },
    {
      "inputs": [
        {
          "internalType": "address",
          "name": "sender",
          "type": "address"
        }
      ],
      "name": "ERC1155InvalidSender",
      "type": "error"
    },
    {
      "inputs": [
        {
          "internalType": "address",
          "name": "operator",
          "type": "address"
        },
        {
          "internalType": "address",
          "name": "owner",
          "type": "address"
        }
      ],
      "name": "ERC1155MissingApprovalForAll",
      "type": "error"
    },
    {
      "inputs": [
        {
          "internalType": "address",
          "name": "owner",
          "type": "address"
        }
      ],
      "name": "OwnableInvalidOwner",
      "type": "error"
    },
    {
      "inputs": [
        {
          "internalType": "address",
          "name": "account",
          "type": "address"
        }
      ],
      "name": "OwnableUnauthorizedAccount",
      "type": "error"
    },
    {
      "anonymous": false,
      "inputs": [
        {
          "indexed": true,
          "internalType": "address",
          "name": "account",
          "type": "address"
        },
        {
          "indexed": true,
          "internalType": "address",
          "name": "operator",
          "type": "address"
        },
        {
          "indexed": false,
          "internalType": "bool",
          "name": "approved",
          "type": "bool"
        }
      ],
      "name": "ApprovalForAll",
      "type": "event"
    },
    {
      "anonymous": false,
      "inputs": [
        {
          "indexed": true,
          "internalType": "address",
          "name": "previousOwner",
          "type": "address"
        },
        {
          "indexed": true,
          "internalType": "address",
          "name": "newOwner",
          "type": "address"
        }
      ],
      "name": "OwnershipTransferred",
      "type": "event"
    },
    {
      "anonymous": false,
      "inputs": [
        {
          "indexed": true,
          "internalType": "address",
          "name": "operator",
          "type": "address"
        },
        {
          "indexed": true,
          "internalType": "address",
          "name": "from",
          "type": "address"
        },
        {
          "indexed": true,
          "internalType": "address",
          "name": "to",
          "type": "address"
        },
        {
          "indexed": false,
          "internalType": "uint256[]",
          "name": "ids",
          "type": "uint256[]"
        },
        {
          "indexed": false,
          "internalType": "uint256[]",
          "name": "values",
          "type": "uint256[]"
        }
      ],
      "name": "TransferBatch",
      "type": "event"
    },
    {
      "anonymous": false,
      "inputs": [
        {
          "indexed": true,
          "internalType": "address",
          "name": "operator",
          "type": "address"
        },
        {
          "indexed": true,
          "internalType": "address",
          "name": "from",
          "type": "address"
        },
        {
          "indexed": true,
          "internalType": "address",
          "name": "to",
          "type": "address"
        },
        {
          "indexed": false,
          "internalType": "uint256",
          "name": "id",
          "type": "uint256"
        },
        {
          "indexed": false,
          "internalType": "uint256",
          "name": "value",
          "type": "uint256"
        }
      ],
      "name": "TransferSingle",
      "type": "event"
    },
    {
      "anonymous": false,
      "inputs": [
        {
          "indexed": false,
          "internalType": "string",
          "name": "value",
          "type": "string"
        },
        {
          "indexed": true,
          "internalType": "uint256",
          "name": "id",
          "type": "uint256"
        }
      ],
      "name": "URI",
      "type": "event"
    },
    {
      "inputs": [
        {
          "internalType": "address",
          "name": "account",
          "type": "address"
        },
        {
          "internalType": "uint256",
          "name": "id",
          "type": "uint256"
        }
      ],
      "name": "balanceOf",
      "outputs": [
        {
          "internalType": "uint256",
          "name": "",
          "type": "uint256"
        }
      ],
      "stateMutability": "view",
      "type": "function"
    },
    {
      "inputs": [
        {
          "internalType": "address[]",
          "name": "accounts",
          "type": "address[]"
        },
        {
          "internalType": "uint256[]",
          "name": "ids",
          "type": "uint256[]"
        }
      ],
      "name": "balanceOfBatch",
      "outputs": [
        {
          "internalType": "uint256[]",
          "name": "",
          "type": "uint256[]"
        }
      ],
      "stateMutability": "view",
      "type": "function"
    },
    {
      "inputs": [
        {
          "internalType": "address",
          "name": "account",
          "type": "address"
        },
        {
          "internalType": "address",
          "name": "operator",
          "type": "address"
        }
      ],
      "name": "isApprovedForAll",
      "outputs": [
        {
          "internalType": "bool",
          "name": "",
          "type": "bool"
        }
      ],
      "stateMutability": "view",
      "type": "function"
    },
    {
      "inputs": [
        {
          "internalType": "address",
          "name": "to",
          "type": "address"
        },
        {
          "internalType": "uint256",
          "name": "id",
          "type": "uint256"
        }
      ],
      "name": "mintTo",
      "outputs": [],
      "stateMutability": "nonpayable",
      "type": "function"
    },
    {
      "inputs": [],
      "name": "owner",
      "outputs": [
        {
          "internalType": "address",
          "name": "",
          "type": "address"
        }
      ],
      "stateMutability": "view",
      "type": "function"
    },
    {
      "inputs": [],
      "name": "relayer",
      "outputs": [
        {
          "internalType": "address",
          "name": "",
          "type": "address"
        }
      ],
      "stateMutability": "view",
      "type": "function"
    },
    {
      "inputs": [],
      "name": "renounceOwnership",
      "outputs": [],
      "stateMutability": "nonpayable",
      "type": "function"
    },
    {
      "inputs": [
        {
          "internalType": "address",
          "name": "from",
          "type": "address"
        },
        {
          "internalType": "address",
          "name": "to",
          "type": "address"
        },
        {
          "internalType": "uint256[]",
          "name": "ids",
          "type": "uint256[]"
        },
        {
          "internalType": "uint256[]",
          "name": "values",
          "type": "uint256[]"
        },
        {
          "internalType": "bytes",
          "name": "data",
          "type": "bytes"
        }
      ],
      "name": "safeBatchTransferFrom",
      "outputs": [],
      "stateMutability": "nonpayable",
      "type": "function"
    },
    {
      "inputs": [
        {
          "internalType": "address",
          "name": "from",
          "type": "address"
        },
        {
          "internalType": "address",
          "name": "to",
          "type": "address"
        },
        {
          "internalType": "uint256",
          "name": "id",
          "type": "uint256"
        },
        {
          "internalType": "uint256",
          "name": "value",
          "type": "uint256"
        },
        {
          "internalType": "bytes",
          "name": "data",
          "type": "bytes"
        }
      ],
      "name": "safeTransferFrom",
      "outputs": [],
      "stateMutability": "nonpayable",
      "type": "function"
    },
    {
      "inputs": [
        {
          "internalType": "address",
          "name": "operator",
          "type": "address"
        },
        {
          "internalType": "bool",
          "name": "approved",
          "type": "bool"
        }
      ],
      "name": "setApprovalForAll",
      "outputs": [],
      "stateMutability": "nonpayable",
      "type": "function"
    },
    {
      "inputs": [
        {
          "internalType": "address",
          "name": "_relayer",
          "type": "address"
        }
      ],
      "name": "setRelayer",
      "outputs": [],
      "stateMutability": "nonpayable",
      "type": "function"
    },
    {
      "inputs": [
        {
          "internalType": "uint256",
          "name": "id",
          "type": "uint256"
        },
        {
          "internalType": "string",
          "name": "newuri",
          "type": "string"
        }
      ],
      "name": "setURI",
      "outputs": [],
      "stateMutability": "nonpayable",
      "type": "function"
    },
    {
      "inputs": [
        {
          "internalType": "bytes4",
          "name": "interfaceId",
          "type": "bytes4"
        }
      ],
      "name": "supportsInterface",
      "outputs": [
        {
          "internalType": "bool",
          "name": "",
          "type": "bool"
        }
      ],
      "stateMutability": "view",
      "type": "function"
    },
    {
      "inputs": [
        {
          "internalType": "address",
          "name": "newOwner",
          "type": "address"
        }
      ],
      "name": "transferOwnership",
      "outputs": [],
      "stateMutability": "nonpayable",
      "type": "function"
    },
    {
      "inputs": [
        {
          "internalType": "uint256",
          "name": "id",
          "type": "uint256"
        }
      ],
      "name": "uri",
      "outputs": [
        {
          "internalType": "string",
          "name": "",
          "type": "string"
        }
      ],
      "stateMutability": "view",
      "type": "function"
    }
  ],
  "bytecode": "0x60806040523480156200001157600080fd5b50604051620019c3380380620019c383398101604081905262000034916200011c565b8082620000418162000085565b506001600160a01b0381166200007157604051631e4fbdf760e01b81526000600482015260240160405180910390fd5b6200007c8162000097565b50505062000361565b600262000093828262000295565b5050565b600380546001600160a01b038381166001600160a01b0319831681179093556040519116919082907f8be0079c531659141344cd1fd0a4f28419497f9722a3daafe3b4186f6b6457e090600090a35050565b634e487b7160e01b600052604160045260246000fd5b80516001600160a01b03811681146200011757600080fd5b919050565b600080604083850312156200013057600080fd5b82516001600160401b03808211156200014857600080fd5b818501915085601f8301126200015d57600080fd5b815181811115620001725762000172620000e9565b604051601f8201601f19908116603f011681019083821181831017156200019d576200019d620000e9565b81604052828152602093508884848701011115620001ba57600080fd5b600091505b82821015620001de5784820184015181830185015290830190620001bf565b6000848483010152809650505050620001f9818601620000ff565b925050509250929050565b600181811c908216806200021957607f821691505b6020821081036200023a57634e487b7160e01b600052602260045260246000fd5b50919050565b601f82111562000290576000816000526020600020601f850160051c810160208610156200026b5750805b601f850160051c820191505b818110156200028c5782815560010162000277565b5050505b505050565b81516001600160401b03811115620002b157620002b1620000e9565b620002c981620002c2845462000204565b8462000240565b602080601f831160018114620003015760008415620002e85750858301515b600019600386901b1c1916600185901b1785556200028c565b600085815260208120601f198616915b82811015620003325788860151825594840194600190910190840162000311565b5085821015620003515787850151600019600388901b60f8161c191681555b5050505050600190811b01905550565b61165280620003716000396000f3fe608060405234801561001057600080fd5b50600436106100f45760003560e01c8063715018a611610097578063a22cb46511610066578063a22cb46514610214578063e985e9c514610227578063f242432a1461023a578063f2fde38b1461024d57600080fd5b8063715018a6146101bd5780638406c079146101c5578063862440e2146101f05780638da5cb5b1461020357600080fd5b80632eb2c2d6116100d35780632eb2c2d614610162578063449a52f8146101775780634e1273f41461018a5780636548e9bc146101aa57600080fd5b8062fdd58e146100f957806301ffc9a71461011f5780630e89341c14610142575b600080fd5b61010c610107366004610e96565b610260565b6040519081526020015b60405180910390f35b61013261012d366004610ed6565b610288565b6040519015158152602001610116565b610155610150366004610ef3565b6102d8565b6040516101169190610f52565b6101756101703660046110b7565b610396565b005b610175610185366004610e96565b610402565b61019d610198366004611161565b6104cd565b604051610116919061125d565b6101756101b8366004611270565b61059a565b6101756105c4565b6004546101d8906001600160a01b031681565b6040516001600160a01b039091168152602001610116565b6101756101fe36600461128b565b6105d8565b6003546001600160a01b03166101d8565b6101756102223660046112dc565b610635565b610132610235366004611318565b610640565b61017561024836600461134b565b61066e565b61017561025b366004611270565b6106cd565b6000818152602081815260408083206001600160a01b03861684529091529020545b92915050565b60006001600160e01b03198216636cdb3d1360e11b14806102b957506001600160e01b031982166303a24d0760e21b145b8061028257506301ffc9a760e01b6001600160e01b0319831614610282565b6000818152600560205260408120805460609291906102f6906113b0565b80601f0160208091040260200160405190810160405280929190818152602001828054610322906113b0565b801561036f5780601f106103445761010080835404028352916020019161036f565b820191906000526020600020905b81548152906001019060200180831161035257829003601f168201915b505050505090506000815111156103865792915050565b61038f8361070b565b9392505050565b336001600160a01b03861681148015906103b757506103b58682610640565b155b156103ed5760405163711bec9160e11b81526001600160a01b038083166004830152871660248201526044015b60405180910390fd5b6103fa868686868661079f565b505050505050565b6003546001600160a01b031633148061042557506004546001600160a01b031633145b6104625760405162461bcd60e51b815260206004820152600e60248201526d1b9bdd17d85d5d1a1bdc9a5e995960921b60448201526064016103e4565b61046c8282610260565b156104ad5760405162461bcd60e51b8152602060048201526011602482015270185b1c9958591e57d8dbdb1b1958dd1959607a1b60448201526064016103e4565b6104c98282600160405180602001604052806000815250610806565b5050565b606081518351146104fe5781518351604051635b05999160e01b8152600481019290925260248201526044016103e4565b6000835167ffffffffffffffff81111561051a5761051a610f65565b604051908082528060200260200182016040528015610543578160200160208202803683370190505b50905060005b84518110156105925760208082028601015161056d90602080840287010151610260565b82828151811061057f5761057f6113ea565b6020908102919091010152600101610549565b509392505050565b6105a2610863565b600480546001600160a01b0319166001600160a01b0392909216919091179055565b6105cc610863565b6105d66000610890565b565b6105e0610863565b60008281526005602052604090206105f8828261144d565b50817f6bb7ff708619ba0610cba295a58592e0451dee2622938c8755667688daf3529b826040516106299190610f52565b60405180910390a25050565b6104c93383836108e2565b6001600160a01b03918216600090815260016020908152604080832093909416825291909152205460ff1690565b336001600160a01b038616811480159061068f575061068d8682610640565b155b156106c05760405163711bec9160e11b81526001600160a01b038083166004830152871660248201526044016103e4565b6103fa8686868686610978565b6106d5610863565b6001600160a01b0381166106ff57604051631e4fbdf760e01b8152600060048201526024016103e4565b61070881610890565b50565b60606002805461071a906113b0565b80601f0160208091040260200160405190810160405280929190818152602001828054610746906113b0565b80156107935780601f1061076857610100808354040283529160200191610793565b820191906000526020600020905b81548152906001019060200180831161077657829003601f168201915b50505050509050919050565b6001600160a01b0384166107c957604051632bfa23e760e11b8152600060048201526024016103e4565b6001600160a01b0385166107f257604051626a0d4560e21b8152600060048201526024016103e4565b6107ff8585858585610a06565b5050505050565b6001600160a01b03841661083057604051632bfa23e760e11b8152600060048201526024016103e4565b604080516001808252602082018690528183019081526060820185905260808201909252906103fa600087848487610a06565b6003546001600160a01b031633146105d65760405163118cdaa760e01b81523360048201526024016103e4565b600380546001600160a01b038381166001600160a01b0319831681179093556040519116919082907f8be0079c531659141344cd1fd0a4f28419497f9722a3daafe3b4186f6b6457e090600090a35050565b6001600160a01b03821661090b5760405162ced3e160e81b8152600060048201526024016103e4565b6001600160a01b03838116600081815260016020908152604080832094871680845294825291829020805460ff191686151590811790915591519182527f17307eab39ab6107e8899845ad3d59bd9653f200f220920489ca2b5937696c31910160405180910390a3505050565b6001600160a01b0384166109a257604051632bfa23e760e11b8152600060048201526024016103e4565b6001600160a01b0385166109cb57604051626a0d4560e21b8152600060048201526024016103e4565b604080516001808252602082018690528183019081526060820185905260808201909252906109fd8787848487610a06565b50505050505050565b610a1285858585610a59565b6001600160a01b038416156107ff5782513390600103610a4b5760208481015190840151610a44838989858589610c6d565b50506103fa565b6103fa818787878787610d91565b8051825114610a885781518151604051635b05999160e01b8152600481019290925260248201526044016103e4565b3360005b8351811015610b8e576020818102858101820151908501909101516001600160a01b03881615610b3f576000828152602081815260408083206001600160a01b038c16845290915290205481811015610b18576040516303dee4c560e01b81526001600160a01b038a1660048201526024810182905260448101839052606481018490526084016103e4565b6000838152602081815260408083206001600160a01b038d16845290915290209082900390555b6001600160a01b03871615610b84576000828152602081815260408083206001600160a01b038b16845290915281208054839290610b7e90849061150d565b90915550505b5050600101610a8c565b508251600103610c0f5760208301516000906020840151909150856001600160a01b0316876001600160a01b0316846001600160a01b03167fc3d58168c5ae7397731d063d5bbf3d657854427343f4c083240f7aacaa2d0f628585604051610c00929190918252602082015260400190565b60405180910390a450506107ff565b836001600160a01b0316856001600160a01b0316826001600160a01b03167f4a39dc06d4c0dbc64b70af90fd698a233a518aa5d07e595d983b8c0526c8f7fb8686604051610c5e92919061152e565b60405180910390a45050505050565b6001600160a01b0384163b156103fa5760405163f23a6e6160e01b81526001600160a01b0385169063f23a6e6190610cb1908990899088908890889060040161155c565b6020604051808303816000875af1925050508015610cec575060408051601f3d908101601f19168201909252610ce9918101906115a1565b60015b610d55573d808015610d1a576040519150601f19603f3d011682016040523d82523d6000602084013e610d1f565b606091505b508051600003610d4d57604051632bfa23e760e11b81526001600160a01b03861660048201526024016103e4565b805160208201fd5b6001600160e01b0319811663f23a6e6160e01b146109fd57604051632bfa23e760e11b81526001600160a01b03861660048201526024016103e4565b6001600160a01b0384163b156103fa5760405163bc197c8160e01b81526001600160a01b0385169063bc197c8190610dd590899089908890889088906004016115be565b6020604051808303816000875af1925050508015610e10575060408051601f3d908101601f19168201909252610e0d918101906115a1565b60015b610e3e573d808015610d1a576040519150601f19603f3d011682016040523d82523d6000602084013e610d1f565b6001600160e01b0319811663bc197c8160e01b146109fd57604051632bfa23e760e11b81526001600160a01b03861660048201526024016103e4565b80356001600160a01b0381168114610e9157600080fd5b919050565b60008060408385031215610ea957600080fd5b610eb283610e7a565b946020939093013593505050565b6001600160e01b03198116811461070857600080fd5b600060208284031215610ee857600080fd5b813561038f81610ec0565b600060208284031215610f0557600080fd5b5035919050565b6000815180845260005b81811015610f3257602081850181015186830182015201610f16565b506000602082860101526020601f19601f83011685010191505092915050565b60208152600061038f6020830184610f0c565b634e487b7160e01b600052604160045260246000fd5b604051601f8201601f1916810167ffffffffffffffff81118282101715610fa457610fa4610f65565b604052919050565b600067ffffffffffffffff821115610fc657610fc6610f65565b5060051b60200190565b600082601f830112610fe157600080fd5b81356020610ff6610ff183610fac565b610f7b565b8083825260208201915060208460051b87010193508684111561101857600080fd5b602086015b84811015611034578035835291830191830161101d565b509695505050505050565b600067ffffffffffffffff83111561105957611059610f65565b61106c601f8401601f1916602001610f7b565b905082815283838301111561108057600080fd5b828260208301376000602084830101529392505050565b600082601f8301126110a857600080fd5b61038f8383356020850161103f565b600080600080600060a086880312156110cf57600080fd5b6110d886610e7a565b94506110e660208701610e7a565b9350604086013567ffffffffffffffff8082111561110357600080fd5b61110f89838a01610fd0565b9450606088013591508082111561112557600080fd5b61113189838a01610fd0565b9350608088013591508082111561114757600080fd5b5061115488828901611097565b9150509295509295909350565b6000806040838503121561117457600080fd5b823567ffffffffffffffff8082111561118c57600080fd5b818501915085601f8301126111a057600080fd5b813560206111b0610ff183610fac565b82815260059290921b840181019181810190898411156111cf57600080fd5b948201945b838610156111f4576111e586610e7a565b825294820194908201906111d4565b9650508601359250508082111561120a57600080fd5b5061121785828601610fd0565b9150509250929050565b60008151808452602080850194506020840160005b8381101561125257815187529582019590820190600101611236565b509495945050505050565b60208152600061038f6020830184611221565b60006020828403121561128257600080fd5b61038f82610e7a565b6000806040838503121561129e57600080fd5b82359150602083013567ffffffffffffffff8111156112bc57600080fd5b8301601f810185136112cd57600080fd5b6112178582356020840161103f565b600080604083850312156112ef57600080fd5b6112f883610e7a565b91506020830135801515811461130d57600080fd5b809150509250929050565b6000806040838503121561132b57600080fd5b61133483610e7a565b915061134260208401610e7a565b90509250929050565b600080600080600060a0868803121561136357600080fd5b61136c86610e7a565b945061137a60208701610e7a565b93506040860135925060608601359150608086013567ffffffffffffffff8111156113a457600080fd5b61115488828901611097565b600181811c908216806113c457607f821691505b6020821081036113e457634e487b7160e01b600052602260045260246000fd5b50919050565b634e487b7160e01b600052603260045260246000fd5b601f821115611448576000816000526020600020601f850160051c810160208610156114295750805b601f850160051c820191505b818110156103fa57828155600101611435565b505050565b815167ffffffffffffffff81111561146757611467610f65565b61147b8161147584546113b0565b84611400565b602080601f8311600181146114b057600084156114985750858301515b600019600386901b1c1916600185901b1785556103fa565b600085815260208120601f198616915b828110156114df578886015182559484019460019091019084016114c0565b50858210156114fd5787850151600019600388901b60f8161c191681555b5050505050600190811b01905550565b8082018082111561028257634e487b7160e01b600052601160045260246000fd5b6040815260006115416040830185611221565b82810360208401526115538185611221565b95945050505050565b6001600160a01b03868116825285166020820152604081018490526060810183905260a06080820181905260009061159690830184610f0c565b979650505050505050565b6000602082840312156115b357600080fd5b815161038f81610ec0565b6001600160a01b0386811682528516602082015260a0604082018190526000906115ea90830186611221565b82810360608401526115fc8186611221565b905082810360808401526116108185610f0c565b9897505050505050505056fea264697066735822122021c94ca026715a3b487823a03a5f6383a377e09d283e5118deebd0950c939c2264736f6c63430008180033",
  "linkReferences": {},
  "deployedLinkReferences": {}
}